{
  "transactions": [
    {
      "hash": "0x798d786abc1da979feeea39cbd6e3db78360bf4b0d017ad21f63e271f2baa7b5",
      "transactionType": "CALL",
      "contractName": null,
      "contractAddress": "0x56f0ef87bc332d1211fd9a2110d06981c985863e",
      "function": "setUpOG()",
      "arguments": [],
      "transaction": {
        "from": "0x14cad55a3fae4bccf874397b011a6a18929c108f",
        "to": "0x56f0ef87bc332d1211fd9a2110d06981c985863e",
        "gas": "0x999a",
        "value": "0x0",
        "input": "0x16a11b02",
        "nonce": "0x4",
        "chainId": "0x5ea"
      },
      "additionalContracts": [],
      "isFixedGasLimit": false
    },
    {
      "hash": "0x35c77091f4485c736ddfeb88333d12c3753d2efcdd39458a39bdf3dabffaa7c5",
      "transactionType": "CALL",
      "contractName": null,
      "contractAddress": "0x56f0ef87bc332d1211fd9a2110d06981c985863e",
      "function": "presaleMintOG(address,bytes32[])",
      "arguments": [
        "0x14cAd55a3FaE4BCcf874397b011a6a18929c108f",
        "[0x51b8ecf1b1fc7312cc2d62d26180fd98c23ffe3b30aff43c64a61951231bb787]"
      ],
      "transaction": {
        "from": "0x14cad55a3fae4bccf874397b011a6a18929c108f",
        "to": "0x56f0ef87bc332d1211fd9a2110d06981c985863e",
        "gas": "0x279f7",
        "value": "0x12309ce54000",
        "input": "0x057864d000000000000000000000000014cad55a3fae4bccf874397b011a6a18929c108f0000000000000000000000000000000000000000000000000000000000000040000000000000000000000000000000000000000000000000000000000000000151b8ecf1b1fc7312cc2d62d26180fd98c23ffe3b30aff43c64a61951231bb787",
        "nonce": "0x5",
        "chainId": "0x5ea"
      },
      "additionalContracts": [],
      "isFixedGasLimit": false
    },
    {
      "hash": "0x362494f1bdcff24f97ff1c2b54b42b1cbcd4aaba966993e1830685b4ac8b0061",
      "transactionType": "CALL",
      "contractName": null,
      "contractAddress": "0x56f0ef87bc332d1211fd9a2110d06981c985863e",
      "function": "presaleMintOG(address,bytes32[])",
      "arguments": [
        "0x14cAd55a3FaE4BCcf874397b011a6a18929c108f",
        "[0x51b8ecf1b1fc7312cc2d62d26180fd98c23ffe3b30aff43c64a61951231bb787]"
      ],
      "transaction": {
        "from": "0x14cad55a3fae4bccf874397b011a6a18929c108f",
        "to": "0x56f0ef87bc332d1211fd9a2110d06981c985863e",
        "gas": "0x1c171",
        "value": "0x12309ce54000",
        "input": "0x057864d000000000000000000000000014cad55a3fae4bccf874397b011a6a18929c108f0000000000000000000000000000000000000000000000000000000000000040000000000000000000000000000000000000000000000000000000000000000151b8ecf1b1fc7312cc2d62d26180fd98c23ffe3b30aff43c64a61951231bb787",
        "nonce": "0x6",
        "chainId": "0x5ea"
      },
      "additionalContracts": [],
      "isFixedGasLimit": false
    },
    {
      "hash": "0x3c3565e7c30019c919fb579fe6cede1c6ee00612f8c062e98144a90c9e22272b",
      "transactionType": "CALL",
      "contractName": null,
      "contractAddress": "0x56f0ef87bc332d1211fd9a2110d06981c985863e",
      "function": "presaleMintOG(address,bytes32[])",
      "arguments": [
        "0x14cAd55a3FaE4BCcf874397b011a6a18929c108f",
        "[0x51b8ecf1b1fc7312cc2d62d26180fd98c23ffe3b30aff43c64a61951231bb787]"
      ],
      "transaction": {
        "from": "0x14cad55a3fae4bccf874397b011a6a18929c108f",
        "to": "0x56f0ef87bc332d1211fd9a2110d06981c985863e",
        "gas": "0x1c171",
        "value": "0x12309ce54000",
        "input": "0x057864d000000000000000000000000014cad55a3fae4bccf874397b011a6a18929c108f0000000000000000000000000000000000000000000000000000000000000040000000000000000000000000000000000000000000000000000000000000000151b8ecf1b1fc7312cc2d62d26180fd98c23ffe3b30aff43c64a61951231bb787",
        "nonce": "0x7",
        "chainId": "0x5ea"
      },
      "additionalContracts": [],
      "isFixedGasLimit": false
    },
    {
      "hash": "0x6f869170033e6106f8d83c4afa56a3642626c1b848c242a3e5d4776367161bc8",
      "transactionType": "CALL",
      "contractName": null,
      "contractAddress": "0x56f0ef87bc332d1211fd9a2110d06981c985863e",
      "function": "presaleMintOG(address,bytes32[])",
      "arguments": [
        "0x14cAd55a3FaE4BCcf874397b011a6a18929c108f",
        "[0x51b8ecf1b1fc7312cc2d62d26180fd98c23ffe3b30aff43c64a61951231bb787]"
      ],
      "transaction": {
        "from": "0x14cad55a3fae4bccf874397b011a6a18929c108f",
        "to": "0x56f0ef87bc332d1211fd9a2110d06981c985863e",
        "gas": "0x1c171",
        "value": "0x12309ce54000",
        "input": "0x057864d000000000000000000000000014cad55a3fae4bccf874397b011a6a18929c108f0000000000000000000000000000000000000000000000000000000000000040000000000000000000000000000000000000000000000000000000000000000151b8ecf1b1fc7312cc2d62d26180fd98c23ffe3b30aff43c64a61951231bb787",
        "nonce": "0x8",
        "chainId": "0x5ea"
      },
      "additionalContracts": [],
      "isFixedGasLimit": false
    },
    {
      "hash": "0x87b5b4c160c6a08cef5c41e2a3950abbdb1897af4cb5e7ac7e493d8003f1592e",
      "transactionType": "CALL",
      "contractName": null,
      "contractAddress": "0x56f0ef87bc332d1211fd9a2110d06981c985863e",
      "function": "presaleMintOG(address,bytes32[])",
      "arguments": [
        "0x14cAd55a3FaE4BCcf874397b011a6a18929c108f",
        "[0x51b8ecf1b1fc7312cc2d62d26180fd98c23ffe3b30aff43c64a61951231bb787]"
      ],
      "transaction": {
        "from": "0x14cad55a3fae4bccf874397b011a6a18929c108f",
        "to": "0x56f0ef87bc332d1211fd9a2110d06981c985863e",
        "gas": "0x1c171",
        "value": "0x12309ce54000",
        "input": "0x057864d000000000000000000000000014cad55a3fae4bccf874397b011a6a18929c108f0000000000000000000000000000000000000000000000000000000000000040000000000000000000000000000000000000000000000000000000000000000151b8ecf1b1fc7312cc2d62d26180fd98c23ffe3b30aff43c64a61951231bb787",
        "nonce": "0x9",
        "chainId": "0x5ea"
      },
      "additionalContracts": [],
      "isFixedGasLimit": false
    },
    {
      "hash": "0xf3d59c4b213a4542931e893c8d211915604ad45819326d4e1c195349a212780a",
      "transactionType": "CALL",
      "contractName": null,
      "contractAddress": "0x77319b4031e6ef1250907aa00018b8b1c67a244b",
      "function": "register(uint256,address,uint256)",
      "arguments": [
        "1514",
        "0x56F0EF87bC332D1211fd9a2110d06981c985863e",
        "5"
      ],
      "transaction": {
        "from": "0x14cad55a3fae4bccf874397b011a6a18929c108f",
        "to": "0x77319b4031e6ef1250907aa00018b8b1c67a244b",
        "gas": "0x66784",
        "value": "0x0",
        "input": "0xfca247ac00000000000000000000000000000000000000000000000000000000000005ea00000000000000000000000056f0ef87bc332d1211fd9a2110d06981c985863e0000000000000000000000000000000000000000000000000000000000000005",
        "nonce": "0xa",
        "chainId": "0x5ea"
      },
      "additionalContracts": [
        {
          "transactionType": "CREATE2",
          "address": "0x1bf2601693a8ee421658006c382bfbd62911bf1b",
          "initCode": "0x3d60ad80600a3d3981f3363d3d373d3d3d363d7300b800138e4d82d1eea48b414d2a2a8aee9a33b15af43d82803e903d91602b57fd5bf3000000000000000000000000000000000000000000000000000000000000000000000000000000000000000000000000000000000000000000000000000005ea00000000000000000000000056f0ef87bc332d1211fd9a2110d06981c985863e0000000000000000000000000000000000000000000000000000000000000005"
        }
      ],
      "isFixedGasLimit": false
    }
  ],
  "receipts": [
    {
      "status": "0x1",
      "cumulativeGasUsed": "0x79acbf",
      "logs": [],
      "logsBloom": "0x00000000000000000000000000000000000000000000000000000000000000000000000000000000000000000000000000000000000000000000000000000000000000000000000000000000000000000000000000000000000000000000000000000000000000000000000000000000000000000000000000000000000000000000000000000000000000000000000000000000000000000000000000000000000000000000000000000000000000000000000000000000000000000000000000000000000000000000000000000000000000000000000000000000000000000000000000000000000000000000000000000000000000000000000000000000",
      "type": "0x2",
      "transactionHash": "0x798d786abc1da979feeea39cbd6e3db78360bf4b0d017ad21f63e271f2baa7b5",
      "transactionIndex": "0x4",
      "blockHash": "0x19a6151d013a2e956ce882dba9baf14f0f8d30c02e62e7d8d87e740073e69dba",
      "blockNumber": "0x36e8d7",
      "gasUsed": "0x6f35",
      "effectiveGasPrice": "0xf44f0",
      "from": "0x14cad55a3fae4bccf874397b011a6a18929c108f",
      "to": "0x56f0ef87bc332d1211fd9a2110d06981c985863e",
      "contractAddress": null
    },
    {
      "status": "0x1",
      "cumulativeGasUsed": "0x7b77bb",
      "logs": [
        {
          "address": "0x56f0ef87bc332d1211fd9a2110d06981c985863e",
          "topics": [
            "0xddf252ad1be2c89b69c2b068fc378daa952ba7f163c4a11628f55a4df523b3ef",
            "0x0000000000000000000000000000000000000000000000000000000000000000",
            "0x00000000000000000000000014cad55a3fae4bccf874397b011a6a18929c108f",
            "0x0000000000000000000000000000000000000000000000000000000000000001"
          ],
          "data": "0x",
          "blockHash": "0x19a6151d013a2e956ce882dba9baf14f0f8d30c02e62e7d8d87e740073e69dba",
          "blockNumber": "0x36e8d7",
          "transactionHash": "0x35c77091f4485c736ddfeb88333d12c3753d2efcdd39458a39bdf3dabffaa7c5",
          "transactionIndex": "0x5",
          "logIndex": "0x0",
          "removed": false
        },
        {
          "address": "0x56f0ef87bc332d1211fd9a2110d06981c985863e",
          "topics": [
            "0x8c9a4f13b67cb64d7c6aa1ae0c9bf07694af521a28b93e7060020810ab4bc59f",
            "0x00000000000000000000000014cad55a3fae4bccf874397b011a6a18929c108f"
          ],
          "data": "0x000000000000000000000000000000000000000000000000000012309ce54000",
          "blockHash": "0x19a6151d013a2e956ce882dba9baf14f0f8d30c02e62e7d8d87e740073e69dba",
          "blockNumber": "0x36e8d7",
          "transactionHash": "0x35c77091f4485c736ddfeb88333d12c3753d2efcdd39458a39bdf3dabffaa7c5",
          "transactionIndex": "0x5",
          "logIndex": "0x1",
          "removed": false
        }
      ],
      "logsBloom": "0x00000000000000000000000000000000000000000000000000000000000100000000000000080000000000000000000000000000000000000000000000040000000000000000000000000008000000000000000000040000000000000000000000000000020000000000000000000800000000000000000000000010000000010000000000000000000000000000000000000000000000000000000000000000000000000000000000000000000000000000000000000000000000000000000000000002000000000800000010020000000004000000000000000000000060000000000000000000000000001000000000000000000000000000000000000000",
      "type": "0x2",
      "transactionHash": "0x35c77091f4485c736ddfeb88333d12c3753d2efcdd39458a39bdf3dabffaa7c5",
      "transactionIndex": "0x5",
      "blockHash": "0x19a6151d013a2e956ce882dba9baf14f0f8d30c02e62e7d8d87e740073e69dba",
      "blockNumber": "0x36e8d7",
      "gasUsed": "0x1cafc",
      "effectiveGasPrice": "0xf44f0",
      "from": "0x14cad55a3fae4bccf874397b011a6a18929c108f",
      "to": "0x56f0ef87bc332d1211fd9a2110d06981c985863e",
      "contractAddress": null
    },
    {
      "status": "0x1",
      "cumulativeGasUsed": "0x7cbd1f",
      "logs": [
        {
          "address": "0x56f0ef87bc332d1211fd9a2110d06981c985863e",
          "topics": [
            "0xddf252ad1be2c89b69c2b068fc378daa952ba7f163c4a11628f55a4df523b3ef",
            "0x0000000000000000000000000000000000000000000000000000000000000000",
            "0x00000000000000000000000014cad55a3fae4bccf874397b011a6a18929c108f",
            "0x0000000000000000000000000000000000000000000000000000000000000002"
          ],
          "data": "0x",
          "blockHash": "0x19a6151d013a2e956ce882dba9baf14f0f8d30c02e62e7d8d87e740073e69dba",
          "blockNumber": "0x36e8d7",
          "transactionHash": "0x362494f1bdcff24f97ff1c2b54b42b1cbcd4aaba966993e1830685b4ac8b0061",
          "transactionIndex": "0x6",
          "logIndex": "0x2",
          "removed": false
        },
        {
          "address": "0x56f0ef87bc332d1211fd9a2110d06981c985863e",
          "topics": [
            "0x8c9a4f13b67cb64d7c6aa1ae0c9bf07694af521a28b93e7060020810ab4bc59f",
            "0x00000000000000000000000014cad55a3fae4bccf874397b011a6a18929c108f"
          ],
          "data": "0x000000000000000000000000000000000000000000000000000012309ce54000",
          "blockHash": "0x19a6151d013a2e956ce882dba9baf14f0f8d30c02e62e7d8d87e740073e69dba",
          "blockNumber": "0x36e8d7",
          "transactionHash": "0x362494f1bdcff24f97ff1c2b54b42b1cbcd4aaba966993e1830685b4ac8b0061",
          "transactionIndex": "0x6",
          "logIndex": "0x3",
          "removed": false
        }
      ],
      "logsBloom": "0x04000000000000000000000000000000000000000000000000000000000100000000000000080000000000000000000000000000000000000000000000040000000000000000000000000008000000000000000000000000000000000000000000000000020000000000000000000800000000000000000000000010000000010000000000000000000000000000000000000000000000000000000000000000000000000000000000000100000000000000000000000000000000000000000000000002000000000800000010020000000004000000000000000000000020000000000000000000000000001000000000000000008000000000000000000000",
      "type": "0x2",
      "transactionHash": "0x362494f1bdcff24f97ff1c2b54b42b1cbcd4aaba966993e1830685b4ac8b0061",
      "transactionIndex": "0x6",
      "blockHash": "0x19a6151d013a2e956ce882dba9baf14f0f8d30c02e62e7d8d87e740073e69dba",
      "blockNumber": "0x36e8d7",
      "gasUsed": "0x14564",
      "effectiveGasPrice": "0xf44f0",
      "from": "0x14cad55a3fae4bccf874397b011a6a18929c108f",
      "to": "0x56f0ef87bc332d1211fd9a2110d06981c985863e",
      "contractAddress": null
    },
    {
      "status": "0x1",
      "cumulativeGasUsed": "0x7e0283",
      "logs": [
        {
          "address": "0x56f0ef87bc332d1211fd9a2110d06981c985863e",
          "topics": [
            "0xddf252ad1be2c89b69c2b068fc378daa952ba7f163c4a11628f55a4df523b3ef",
            "0x0000000000000000000000000000000000000000000000000000000000000000",
            "0x00000000000000000000000014cad55a3fae4bccf874397b011a6a18929c108f",
            "0x0000000000000000000000000000000000000000000000000000000000000003"
          ],
          "data": "0x",
          "blockHash": "0x19a6151d013a2e956ce882dba9baf14f0f8d30c02e62e7d8d87e740073e69dba",
          "blockNumber": "0x36e8d7",
          "transactionHash": "0x3c3565e7c30019c919fb579fe6cede1c6ee00612f8c062e98144a90c9e22272b",
          "transactionIndex": "0x7",
          "logIndex": "0x4",
          "removed": false
        },
        {
          "address": "0x56f0ef87bc332d1211fd9a2110d06981c985863e",
          "topics": [
            "0x8c9a4f13b67cb64d7c6aa1ae0c9bf07694af521a28b93e7060020810ab4bc59f",
            "0x00000000000000000000000014cad55a3fae4bccf874397b011a6a18929c108f"
          ],
          "data": "0x000000000000000000000000000000000000000000000000000012309ce54000",
          "blockHash": "0x19a6151d013a2e956ce882dba9baf14f0f8d30c02e62e7d8d87e740073e69dba",
          "blockNumber": "0x36e8d7",
          "transactionHash": "0x3c3565e7c30019c919fb579fe6cede1c6ee00612f8c062e98144a90c9e22272b",
          "transactionIndex": "0x7",
          "logIndex": "0x5",
          "removed": false
        }
      ],
      "logsBloom": "0x00000000000000000000000000000000000000000000000000000000000100000000000000080000000000000000000000000000020000000000000000040000000000000000000000000008000000000000000000000000000000000000000000000000020000000000000000000800000000000000000000000010000000010000000000000000000000000000000000000000000000000000000000000000000000000000000000000000000000000000000000800000000000000000400000000002000000000800000010020000000004000000000000000000000020000000000000000000000000001000000000000000000000000000000000000000",
      "type": "0x2",
      "transactionHash": "0x3c3565e7c30019c919fb579fe6cede1c6ee00612f8c062e98144a90c9e22272b",
      "transactionIndex": "0x7",
      "blockHash": "0x19a6151d013a2e956ce882dba9baf14f0f8d30c02e62e7d8d87e740073e69dba",
      "blockNumber": "0x36e8d7",
      "gasUsed": "0x14564",
      "effectiveGasPrice": "0xf44f0",
      "from": "0x14cad55a3fae4bccf874397b011a6a18929c108f",
      "to": "0x56f0ef87bc332d1211fd9a2110d06981c985863e",
      "contractAddress": null
    },
    {
      "status": "0x1",
      "cumulativeGasUsed": "0x7f47e7",
      "logs": [
        {
          "address": "0x56f0ef87bc332d1211fd9a2110d06981c985863e",
          "topics": [
            "0xddf252ad1be2c89b69c2b068fc378daa952ba7f163c4a11628f55a4df523b3ef",
            "0x0000000000000000000000000000000000000000000000000000000000000000",
            "0x00000000000000000000000014cad55a3fae4bccf874397b011a6a18929c108f",
            "0x0000000000000000000000000000000000000000000000000000000000000004"
          ],
          "data": "0x",
          "blockHash": "0x19a6151d013a2e956ce882dba9baf14f0f8d30c02e62e7d8d87e740073e69dba",
          "blockNumber": "0x36e8d7",
          "transactionHash": "0x6f869170033e6106f8d83c4afa56a3642626c1b848c242a3e5d4776367161bc8",
          "transactionIndex": "0x8",
          "logIndex": "0x6",
          "removed": false
        },
        {
          "address": "0x56f0ef87bc332d1211fd9a2110d06981c985863e",
          "topics": [
            "0x8c9a4f13b67cb64d7c6aa1ae0c9bf07694af521a28b93e7060020810ab4bc59f",
            "0x00000000000000000000000014cad55a3fae4bccf874397b011a6a18929c108f"
          ],
          "data": "0x000000000000000000000000000000000000000000000000000012309ce54000",
          "blockHash": "0x19a6151d013a2e956ce882dba9baf14f0f8d30c02e62e7d8d87e740073e69dba",
          "blockNumber": "0x36e8d7",
          "transactionHash": "0x6f869170033e6106f8d83c4afa56a3642626c1b848c242a3e5d4776367161bc8",
          "transactionIndex": "0x8",
          "logIndex": "0x7",
          "removed": false
        }
      ],
      "logsBloom": "0x00000000000000000000000000000000000000000000000000000000000100000000000000080000000000000000000000000000000000000000000000040000000000000000000000000008000000000000000000000000000000000000000008000000020000000000000000000800000000000000000000000010000000010000000000000000000000000000000000000000000000000000000000000000000000000000000000000000000000000000000000000000002000000000000000000002000000000800000010020000000004008000000000000000000020000000000000000000000000001000000000000000000000000000000000000000",
      "type": "0x2",
      "transactionHash": "0x6f869170033e6106f8d83c4afa56a3642626c1b848c242a3e5d4776367161bc8",
      "transactionIndex": "0x8",
      "blockHash": "0x19a6151d013a2e956ce882dba9baf14f0f8d30c02e62e7d8d87e740073e69dba",
      "blockNumber": "0x36e8d7",
      "gasUsed": "0x14564",
      "effectiveGasPrice": "0xf44f0",
      "from": "0x14cad55a3fae4bccf874397b011a6a18929c108f",
      "to": "0x56f0ef87bc332d1211fd9a2110d06981c985863e",
      "contractAddress": null
    },
    {
      "status": "0x1",
      "cumulativeGasUsed": "0x808d4b",
      "logs": [
        {
          "address": "0x56f0ef87bc332d1211fd9a2110d06981c985863e",
          "topics": [
            "0xddf252ad1be2c89b69c2b068fc378daa952ba7f163c4a11628f55a4df523b3ef",
            "0x0000000000000000000000000000000000000000000000000000000000000000",
            "0x00000000000000000000000014cad55a3fae4bccf874397b011a6a18929c108f",
            "0x0000000000000000000000000000000000000000000000000000000000000005"
          ],
          "data": "0x",
          "blockHash": "0x19a6151d013a2e956ce882dba9baf14f0f8d30c02e62e7d8d87e740073e69dba",
          "blockNumber": "0x36e8d7",
          "transactionHash": "0x87b5b4c160c6a08cef5c41e2a3950abbdb1897af4cb5e7ac7e493d8003f1592e",
          "transactionIndex": "0x9",
          "logIndex": "0x8",
          "removed": false
        },
        {
          "address": "0x56f0ef87bc332d1211fd9a2110d06981c985863e",
          "topics": [
            "0x8c9a4f13b67cb64d7c6aa1ae0c9bf07694af521a28b93e7060020810ab4bc59f",
            "0x00000000000000000000000014cad55a3fae4bccf874397b011a6a18929c108f"
          ],
          "data": "0x000000000000000000000000000000000000000000000000000012309ce54000",
          "blockHash": "0x19a6151d013a2e956ce882dba9baf14f0f8d30c02e62e7d8d87e740073e69dba",
          "blockNumber": "0x36e8d7",
          "transactionHash": "0x87b5b4c160c6a08cef5c41e2a3950abbdb1897af4cb5e7ac7e493d8003f1592e",
          "transactionIndex": "0x9",
          "logIndex": "0x9",
          "removed": false
        }
      ],
      "logsBloom": "0x00000000000000000000000000000000000000000000000000000000000100000000000000080000000000000000000000000000000000000000000000040000000010000000000000000008000000000000000000000000000000000000000000000000020000000000000000000800000000000000000000000010000000010000000000000000000000000000001000000800000000000000000000000000000000000000000000000000000000000000000000000000000000000000000000000002000000000800000010020000000004000000000000000000000020000000000000000000000000001000000000000000000000000000000000000000",
      "type": "0x2",
      "transactionHash": "0x87b5b4c160c6a08cef5c41e2a3950abbdb1897af4cb5e7ac7e493d8003f1592e",
      "transactionIndex": "0x9",
      "blockHash": "0x19a6151d013a2e956ce882dba9baf14f0f8d30c02e62e7d8d87e740073e69dba",
      "blockNumber": "0x36e8d7",
      "gasUsed": "0x14564",
      "effectiveGasPrice": "0xf44f0",
      "from": "0x14cad55a3fae4bccf874397b011a6a18929c108f",
      "to": "0x56f0ef87bc332d1211fd9a2110d06981c985863e",
      "contractAddress": null
    },
    {
      "status": "0x1",
      "cumulativeGasUsed": "0x853047",
      "logs": [
        {
          "address": "0x000000006551c19487814612e58fe06813775758",
          "topics": [
            "0x79f19b3655ee38b1ce526556b7731a20c8f218fbda4a3990b6cc4172fdf88722",
            "0x00000000000000000000000000b800138e4d82d1eea48b414d2a2a8aee9a33b1",
            "0x00000000000000000000000056f0ef87bc332d1211fd9a2110d06981c985863e",
            "0x0000000000000000000000000000000000000000000000000000000000000005"
          ],
          "data": "0x0000000000000000000000001bf2601693a8ee421658006c382bfbd62911bf1b000000000000000000000000000000000000000000000000000000000000000000000000000000000000000000000000000000000000000000000000000005ea",
          "blockHash": "0x19a6151d013a2e956ce882dba9baf14f0f8d30c02e62e7d8d87e740073e69dba",
          "blockNumber": "0x36e8d7",
          "transactionHash": "0xf3d59c4b213a4542931e893c8d211915604ad45819326d4e1c195349a212780a",
          "transactionIndex": "0xa",
          "logIndex": "0xa",
          "removed": false
        },
        {
          "address": "0x77319b4031e6ef1250907aa00018b8b1c67a244b",
          "topics": [
            "0x5be70b68c8361762980ec7d425d79fd33f6d49cac8a498e6ddf514f995b987f7",
            "0x0000000000000000000000001bf2601693a8ee421658006c382bfbd62911bf1b",
            "0x00000000000000000000000000b800138e4d82d1eea48b414d2a2a8aee9a33b1",
            "0x00000000000000000000000000000000000000000000000000000000000005ea"
          ],
          "data": "0x00000000000000000000000056f0ef87bc332d1211fd9a2110d06981c985863e0000000000000000000000000000000000000000000000000000000000000005",
          "blockHash": "0x19a6151d013a2e956ce882dba9baf14f0f8d30c02e62e7d8d87e740073e69dba",
          "blockNumber": "0x36e8d7",
          "transactionHash": "0xf3d59c4b213a4542931e893c8d211915604ad45819326d4e1c195349a212780a",
          "transactionIndex": "0xa",
          "logIndex": "0xb",
          "removed": false
        },
        {
          "address": "0x77319b4031e6ef1250907aa00018b8b1c67a244b",
          "topics": [
            "0x02ad3a2e0356b65fdfe4a73c825b78071ae469db35162978518b8c258abb3767",
            "0x00000000000000000000000000000000000000000000000000000000000005ea",
            "0x00000000000000000000000056f0ef87bc332d1211fd9a2110d06981c985863e",
            "0x0000000000000000000000000000000000000000000000000000000000000005"
          ],
          "data": "0x0000000000000000000000001bf2601693a8ee421658006c382bfbd62911bf1b000000000000000000000000000000000000000000000000000000000000008000000000000000000000000000000000000000000000000000000000000000c00000000000000000000000000000000000000000000000000000000068103e4b0000000000000000000000000000000000000000000000000000000000000014313531343a20436f6c6c6563744e616d652023350000000000000000000000000000000000000000000000000000000000000000000000000000000000000049697066733a2f2f6261667962656966767879776f6a3270373368666c7276676562626b35616f6c776171336974626967663775727774746271686c6e6535656368342f352e6a736f6e0000000000000000000000000000000000000000000000",
          "blockHash": "0x19a6151d013a2e956ce882dba9baf14f0f8d30c02e62e7d8d87e740073e69dba",
          "blockNumber": "0x36e8d7",
          "transactionHash": "0xf3d59c4b213a4542931e893c8d211915604ad45819326d4e1c195349a212780a",
          "transactionIndex": "0xa",
          "logIndex": "0xc",
          "removed": false
        }
      ],
      "logsBloom": "0x10090000000000000000000000000004000000000000000000000004000000000100020000800000000000000000000000000001000000000002004000000000000110000000000000000000000040000000000000000000000380000000000000000000000000000000000000000000000000000000000000000000000000000000000200002000080000000000001000000800000008000000000000000000000000000000000000000000002000000000000000000000020000000000000000000080000000000010000000000000000008000000000000000000000000000000000000000000000000000000000000000000000000000000000100000100",
      "type": "0x2",
      "transactionHash": "0xf3d59c4b213a4542931e893c8d211915604ad45819326d4e1c195349a212780a",
      "transactionIndex": "0xa",
      "blockHash": "0x19a6151d013a2e956ce882dba9baf14f0f8d30c02e62e7d8d87e740073e69dba",
      "blockNumber": "0x36e8d7",
      "gasUsed": "0x4a2fc",
      "effectiveGasPrice": "0xf44f0",
      "from": "0x14cad55a3fae4bccf874397b011a6a18929c108f",
      "to": "0x77319b4031e6ef1250907aa00018b8b1c67a244b",
      "contractAddress": null
    }
  ],
  "libraries": [],
  "pending": [],
  "returns": {},
  "timestamp": 1745894994,
  "chain": 1514,
  "commit": "ba0f215"
}